:100000000C9462000C948A000C948A000C948A0070
:100010000C948A000C948A000C948A000C948A0038
:100020000C948A000C948A000C948A000C948A0028
:100030000C948A000C948A000C948A000C948A0018
:100040000C94E7010C948A000C9433030C94810304
:100050000C948A000C948A000C948A000C948A00F8
:100060000C948A000C948A000000000024002700F1
:100070002A0000000000250028002B0000000000DE
:1000800023002600290004040404040404040202DA
:100090000202020203030303030301020408102007
:1000A0004080010204081020010204081020000012
:1000B0000007000201000003040600000000000029
:1000C0000000ED0411241FBECFEFD8E0DEBFCDBF8E
:1000D00011E0A0E0B1E0E4E5FCE002C005900D9283
:1000E000A231B107D9F711E0A2E1B1E001C01D9240
:1000F000A93CB107E1F710E0C4ECD0E004C02297BE
:10010000FE010E942406C23CD107C9F70E942303C6
:100110000C9428060C940000809114019091150114
:100120008A30910539F48091B0008F7D8093B000C2
:100130005B9806C00B9721F484B58F7784BD5E98D9
:1001400063E070E080E090E00E942F028091140153
:10015000909115018A30910539F48091B0008F7D1E
:100160008093B0005B9A06C00B9721F484B58F771B
:1001700084BD5E9A63E070E080E090E00E942F0210
:1001800008950F931F93CF93DF938C01C0E0D0E0CD
:1001900003C00E948C002196C017D107D4F3DF91D1
:1001A000CF911F910F9108950F931F9307EA11E0CC
:1001B000C80140E855E260E070E00E94BC033C9A50
:1001C0003B9A3D9A459A529A549A539A559A579AFD
:1001D000569A239A259A249A389A3A9A399A5A9A88
:1001E00084B58F7D84BD5D9AE0EBF0E080818F77F0
:1001F00080832B9A409A43984498C80163ED0E94EB
:10020000AD048AE090E090931501809314011F9152
:100210000F91089587EA91E00E9443041816190689
:100220000CF0D4C087EA91E00E947404BC01909362
:10023000130180931201809100019091010182309D
:10024000910509F4A0C08330910524F4019709F0C9
:10025000BDC008C08330910509F49FC0079709F01D
:10026000B5C0AAC06D3C710509F45BC06E3C710558
:10027000B4F46A3C7105B1F16B3C710544F4683C1F
:10028000710549F1693C710509F0A0C026C06B3CBD
:10029000710559F16C3C710509F098C034C0603D9E
:1002A000710509F461C0613D71054CF46E3C710546
:1002B00009F447C06F3C710509F088C052C0623D27
:1002C000710509F453C0623D71054CF0643D710540
:1002D00009F07CC055C0449869C0449A67C086E064
:1002E00090E056C083E090E053C08091140190915B
:1002F00015018A30910511F45C9A58C00B9709F0EA
:1003000055C05F9A53C080911401909115018A30B5
:10031000910511F45C984AC00B9709F047C05F98AB
:1003200045C080911401909115018A30910511F416
:100330005A983CC00B97D1F584B58F7D84BD5D98EC
:1003400035C080911401909115018A30910511F406
:100350005A9A2CC00B9751F584B58F7D84BD5D9A58
:1003600025C082E090E01EC0439820C061E070E0AC
:1003700080E090E00E942F0287EA91E063ED19C0CF
:1003800087E090E005C081E10E94C30281E090E037
:1003900090930101809300010895CB010E94C10058
:1003A00081E090E0909301018093000187EA91E061
:1003B00065ED0E94AD0408957093150160931401DA
:1003C00081E090E0909301018093000108951F92D5
:1003D0000F920FB60F9211242F933F938F939F93F9
:1003E000AF93BF9380911A0190911B01A0911C01C2
:1003F000B0911D0130911E010196A11DB11D232F49
:100400002D5F2D3720F02D570196A11DB11D209392
:100410001E0180931A0190931B01A0931C01B093BD
:100420001D018091160190911701A0911801B091C2
:1004300019010196A11DB11D80931601909317011A
:10044000A0931801B0931901BF91AF919F918F9123
:100450003F912F910F900FBE0F901F9018959B0109
:10046000AC017FB7F8948091160190911701A0918B
:100470001801B091190166B5A89B05C06F3F19F02E
:100480000196A11DB11D7FBFBA2FA92F982F8827D4
:10049000860F911DA11DB11D62E0880F991FAA1F33
:1004A000BB1F6A95D1F7BC012DC0FFB7F8948091AE
:1004B000160190911701A0911801B0911901E6B5AC
:1004C000A89B05C0EF3F19F00196A11DB11DFFBF0C
:1004D000BA2FA92F982F88278E0F911DA11DB11D0E
:1004E000E2E0880F991FAA1FBB1FEA95D1F7861B70
:1004F000970B885E9340C8F22150304040405040F6
:1005000068517C4F211531054105510571F608955B
:10051000789484B5826084BD84B5816084BD85B5DE
:10052000826085BD85B5816085BDEEE6F0E08081A5
:1005300081608083E1E8F0E01082808182608083C6
:10054000808181608083E0E8F0E080818160808349
:10055000E1EBF0E0808184608083E0EBF0E080817B
:1005600081608083EAE7F0E080818460808380811D
:1005700082608083808181608083808180688083C5
:100580001092C10008951F93CF93DF93182FEB01B2
:1005900061E00E944305209709F44AC0CF3FD1058E
:1005A00009F449C0E12FF0E0E255FF4F8491833018
:1005B000C1F0843028F4813051F08230B1F50CC0A4
:1005C000863019F1873049F1843079F514C084B54B
:1005D000806884BDC7BD33C084B5806284BDC8BD9A
:1005E0002EC080918000806880938000D093890025
:1005F000C093880024C08091800080628093800036
:10060000D0938B00C0938A001AC08091B00080689C
:100610008093B000C093B30012C08091B00080629C
:100620008093B000C093B4000AC0C038D1051CF458
:10063000812F60E002C0812F61E00E948205DF917E
:10064000CF911F910895CF93DF930E9488020E945B
:10065000D400CEE6D3E00E940A012097E1F30E9485
:100660006E03F9CF08951F920F920FB60F921124C7
:100670002F933F934F938F939F93EF93FF9380918B
:10068000C00082FD1DC04091C60020915F013091E5
:1006900060012F5F3F4F2F73307080916101909107
:1006A00062012817390771F0E0915F01F091600154
:1006B000E15EFE4F40833093600120935F0102C0F2
:1006C0008091C600FF91EF919F918F914F913F9143
:1006D0002F910F900FBE0F901F901895E091B301CE
:1006E000F091B401E05CFF4F8191919120813181C3
:1006F000821B930B8F739070892B11F00E94320331
:1007000008951F920F920FB60F9211242F933F93CB
:100710008F939F93EF93FF932091A3013091A401B6
:100720008091A5019091A6012817390731F4809195
:10073000C1008F7D8093C10014C0E091A501F091AC
:10074000A601ED59FE4F20818091A5019091A6014F
:1007500001968F7390709093A6018093A5012093CA
:10076000C600FF91EF919F918F913F912F910F9034
:100770000FBE0F901F901895AF92BF92DF92EF922D
:10078000FF920F931F93CF93DF93EC017A018B01BC
:10079000DD24403081EE580780E0680780E078076C
:1007A00011F0DD24D39491E0A92EB12CEC89FD89C0
:1007B000DD2069F0C50108A002C0880F991F0A94C6
:1007C000E2F7808360E079E08DE390E005C010827D
:1007D00060E874E88EE190E0A80197010E940006AD
:1007E00021503040404050405695479537952795C9
:1007F00080E12030380720F0DD2011F0DD24D6CF55
:10080000E889F9893083EA89FB89208319A2EE8976
:10081000FF89408121E030E0C9010C8C02C0880FC3
:10082000991F0A94E2F7482B4083EE89FF894081A3
:10083000C9010D8C02C0880F991F0A94E2F7482B5A
:100840004083EE89FF894081C9010E8C02C0880F68
:10085000991F0A94E2F7482B4083EE89FF89808133
:100860000F8C02C0220F331F0A94E2F72095282331
:100870002083DF91CF911F910F91FF90EF90DF9038
:10088000BF90AF900895DC011C96ED91FC911D97EF
:10089000E05CFF4F2191319180819181281B390BC0
:1008A0002F733070C9010895DC011C96ED91FC9105
:1008B0001D97E05CFF4F20813181E054F040DF0163
:1008C000AE5BBF4F8D919C9111972817390719F492
:1008D0002FEF3FEF07C08D919C91E80FF91F8081AA
:1008E000282F30E0C9010895DC011C96ED91FC91A0
:1008F0001D97E05CFF4F20813181E054F040DF0123
:10090000AE5BBF4F8D919C9111972817390719F451
:100910002FEF3FEF10C08D919C911197E80FF91FB9
:1009200020818D919C91119701968F7390701196F3
:100930009C938E9330E0C9010895DC0191968C91CF
:100940009197882339F05496ED91FC9155978081C9
:1009500086FFF9CF91961C920895CF93DF93EC0117
:10096000EE85FF85E05CFF4F20813181E054F0404F
:100970002F5F3F4F2F733070DF01AE5BBF4F8D9104
:100980009C91119728173907D1F3E05CFF4F8081C4
:100990009181E054F040E80FF91F6083EE85FF85F8
:1009A000E05CFF4F31832083EE89FF89208181E065
:1009B00090E00F8C02C0880F991F0A94E2F7282B51
:1009C000208381E089A3EC89FD8980818064808314
:1009D00081E090E0DF91CF9108951092AA011092EA
:1009E000A90188EE93E0A0E0B0E08093AB01909382
:1009F000AC01A093AD01B093AE0186E091E090937D
:100A0000A8018093A7018FE191E09093B4018093B6
:100A1000B30183E691E09093B6018093B50185EC34
:100A200090E09093B8018093B70184EC90E09093AC
:100A3000BA018093B90180EC90E09093BC0180935F
:100A4000BB0181EC90E09093BE018093BD0182ECEC
:100A500090E09093C0018093BF0186EC90E090936A
:100A6000C2018093C10184E08093C30183E080933D
:100A7000C40187E08093C50185E08093C60181E0D1
:100A80008093C7010895CF93DF93482F50E0CA01A8
:100A900086569F4FFC0134914A575F4FFA0184916B
:100AA000882369F190E0880F991FFC01E859FF4FF6
:100AB000A591B491FC01EE58FF4FC591D4916623E6
:100AC00051F42FB7F8948C91932F909589238C93A0
:100AD000888189230BC0623061F42FB7F8948C9120
:100AE000932F909589238C938881832B88832FBFA4
:100AF00006C09FB7F8948C91832B8C939FBFDF9196
:100B0000CF910895482F50E0CA0182559F4FFC01B4
:100B10002491CA0186569F4FFC0194914A575F4F1A
:100B2000FA013491332309F440C0222351F12330D8
:100B300071F0243028F42130A1F0223011F514C0D6
:100B40002630B1F02730C1F02430D9F404C08091B0
:100B500080008F7703C0809180008F7D809380001C
:100B600010C084B58F7702C084B58F7D84BD09C065
:100B70008091B0008F7703C08091B0008F7D80930B
:100B8000B000E32FF0E0EE0FFF1FEE58FF4FA591EE
:100B9000B4912FB7F894662321F48C919095892312
:100BA00002C08C91892B8C932FBF0895CF92DF9236
:100BB000EF92FF920F931F93CF93DF937C016B0112
:100BC0008A01C0E0D0E00FC0D6016D916D01D70160
:100BD000ED91FC910190F081E02DC7010995C80FBE
:100BE000D91F015010400115110571F7CE01DF9199
:100BF000CF911F910F91FF90EF90DF90CF900895CC
:100C0000A1E21A2EAA1BBB1BFD010DC0AA1FBB1F10
:100C1000EE1FFF1FA217B307E407F50720F0A21B82
:100C2000B30BE40BF50B661F771F881F991F1A94EF
:100C300069F760957095809590959B01AC01BD0119
:100C4000CF010895EE0FFF1F0590F491E02D099458
:040C5000F894FFCF46
:100C5400010000000000AD04D605430474045404EC
:020C64009D04ED
:00000001FF
